{
  "contractName": "AdminContract",
  "abi": [
    {
      "inputs": [],
      "payable": false,
      "stateMutability": "nonpayable",
      "type": "constructor"
    },
    {
      "constant": true,
      "inputs": [
        {
          "internalType": "uint256",
          "name": "",
          "type": "uint256"
        }
      ],
      "name": "consumers",
      "outputs": [
        {
          "internalType": "address",
          "name": "addr",
          "type": "address"
        },
        {
          "internalType": "bool",
          "name": "ispresent",
          "type": "bool"
        },
        {
          "internalType": "string",
          "name": "name",
          "type": "string"
        }
      ],
      "payable": false,
      "stateMutability": "view",
      "type": "function"
    },
    {
      "constant": true,
      "inputs": [],
      "name": "owner",
      "outputs": [
        {
          "internalType": "address",
          "name": "",
          "type": "address"
        }
      ],
      "payable": false,
      "stateMutability": "view",
      "type": "function"
    },
    {
      "constant": true,
      "inputs": [
        {
          "internalType": "uint256",
          "name": "",
          "type": "uint256"
        }
      ],
      "name": "producers",
      "outputs": [
        {
          "internalType": "address",
          "name": "addr",
          "type": "address"
        },
        {
          "internalType": "bool",
          "name": "ispresent",
          "type": "bool"
        },
        {
          "internalType": "string",
          "name": "name",
          "type": "string"
        },
        {
          "internalType": "uint256",
          "name": "penalize",
          "type": "uint256"
        }
      ],
      "payable": false,
      "stateMutability": "view",
      "type": "function"
    },
    {
      "constant": true,
      "inputs": [
        {
          "internalType": "uint256",
          "name": "",
          "type": "uint256"
        }
      ],
      "name": "recycleUnits",
      "outputs": [
        {
          "internalType": "address",
          "name": "addr",
          "type": "address"
        },
        {
          "internalType": "bool",
          "name": "ispresent",
          "type": "bool"
        },
        {
          "internalType": "string",
          "name": "name",
          "type": "string"
        }
      ],
      "payable": false,
      "stateMutability": "view",
      "type": "function"
    },
    {
      "constant": true,
      "inputs": [
        {
          "internalType": "uint256",
          "name": "",
          "type": "uint256"
        }
      ],
      "name": "retailers",
      "outputs": [
        {
          "internalType": "address",
          "name": "addr",
          "type": "address"
        },
        {
          "internalType": "bool",
          "name": "ispresent",
          "type": "bool"
        },
        {
          "internalType": "string",
          "name": "name",
          "type": "string"
        }
      ],
      "payable": false,
      "stateMutability": "view",
      "type": "function"
    },
    {
      "constant": false,
      "inputs": [
        {
          "internalType": "address",
          "name": "_pAddress",
          "type": "address"
        },
        {
          "internalType": "string",
          "name": "_name",
          "type": "string"
        }
      ],
      "name": "addProducer",
      "outputs": [
        {
          "internalType": "bool",
          "name": "",
          "type": "bool"
        }
      ],
      "payable": false,
      "stateMutability": "nonpayable",
      "type": "function"
    },
    {
      "constant": false,
      "inputs": [
        {
          "internalType": "address",
          "name": "_rAddress",
          "type": "address"
        },
        {
          "internalType": "string",
          "name": "_name",
          "type": "string"
        }
      ],
      "name": "addRetailer",
      "outputs": [
        {
          "internalType": "bool",
          "name": "",
          "type": "bool"
        }
      ],
      "payable": false,
      "stateMutability": "nonpayable",
      "type": "function"
    },
    {
      "constant": false,
      "inputs": [
        {
          "internalType": "address",
          "name": "_cAddress",
          "type": "address"
        },
        {
          "internalType": "string",
          "name": "_name",
          "type": "string"
        }
      ],
      "name": "addConsumer",
      "outputs": [
        {
          "internalType": "bool",
          "name": "",
          "type": "bool"
        }
      ],
      "payable": false,
      "stateMutability": "nonpayable",
      "type": "function"
    },
    {
      "constant": false,
      "inputs": [
        {
          "internalType": "address",
          "name": "_rAddress",
          "type": "address"
        },
        {
          "internalType": "string",
          "name": "_name",
          "type": "string"
        }
      ],
      "name": "addRecycleUnit",
      "outputs": [
        {
          "internalType": "bool",
          "name": "",
          "type": "bool"
        }
      ],
      "payable": false,
      "stateMutability": "nonpayable",
      "type": "function"
    },
    {
      "constant": true,
      "inputs": [
        {
          "internalType": "address",
          "name": "_address",
          "type": "address"
        }
      ],
      "name": "checkProducer",
      "outputs": [
        {
          "internalType": "bool",
          "name": "",
          "type": "bool"
        }
      ],
      "payable": false,
      "stateMutability": "view",
      "type": "function"
    },
    {
      "constant": true,
      "inputs": [
        {
          "internalType": "address",
          "name": "_address",
          "type": "address"
        }
      ],
      "name": "checkRetailer",
      "outputs": [
        {
          "internalType": "bool",
          "name": "",
          "type": "bool"
        }
      ],
      "payable": false,
      "stateMutability": "view",
      "type": "function"
    },
    {
      "constant": true,
      "inputs": [
        {
          "internalType": "address",
          "name": "_address",
          "type": "address"
        }
      ],
      "name": "checkConsumer",
      "outputs": [
        {
          "internalType": "bool",
          "name": "",
          "type": "bool"
        }
      ],
      "payable": false,
      "stateMutability": "view",
      "type": "function"
    },
    {
      "constant": true,
      "inputs": [
        {
          "internalType": "address",
          "name": "_address",
          "type": "address"
        }
      ],
      "name": "checkRecycleUnit",
      "outputs": [
        {
          "internalType": "bool",
          "name": "",
          "type": "bool"
        }
      ],
      "payable": false,
      "stateMutability": "view",
      "type": "function"
    },
    {
      "constant": true,
      "inputs": [],
      "name": "getProducerCount",
      "outputs": [
        {
          "internalType": "uint256",
          "name": "",
          "type": "uint256"
        }
      ],
      "payable": false,
      "stateMutability": "view",
      "type": "function"
    },
    {
      "constant": true,
      "inputs": [],
      "name": "getRetailerCount",
      "outputs": [
        {
          "internalType": "uint256",
          "name": "",
          "type": "uint256"
        }
      ],
      "payable": false,
      "stateMutability": "view",
      "type": "function"
    },
    {
      "constant": true,
      "inputs": [],
      "name": "getConsumerCount",
      "outputs": [
        {
          "internalType": "uint256",
          "name": "",
          "type": "uint256"
        }
      ],
      "payable": false,
      "stateMutability": "view",
      "type": "function"
    },
    {
      "constant": true,
      "inputs": [],
      "name": "getRecyclingUintCount",
      "outputs": [
        {
          "internalType": "uint256",
          "name": "",
          "type": "uint256"
        }
      ],
      "payable": false,
      "stateMutability": "view",
      "type": "function"
    },
    {
      "constant": true,
      "inputs": [
        {
          "internalType": "address",
          "name": "_address",
          "type": "address"
        }
      ],
      "name": "getProducerName",
      "outputs": [
        {
          "internalType": "string",
          "name": "",
          "type": "string"
        },
        {
          "internalType": "uint256",
          "name": "",
          "type": "uint256"
        }
      ],
      "payable": false,
      "stateMutability": "view",
      "type": "function"
    },
    {
      "constant": true,
      "inputs": [
        {
          "internalType": "address",
          "name": "_address",
          "type": "address"
        }
      ],
      "name": "getRetailerName",
      "outputs": [
        {
          "internalType": "string",
          "name": "",
          "type": "string"
        }
      ],
      "payable": false,
      "stateMutability": "view",
      "type": "function"
    },
    {
      "constant": true,
      "inputs": [
        {
          "internalType": "address",
          "name": "_address",
          "type": "address"
        }
      ],
      "name": "getConsumerName",
      "outputs": [
        {
          "internalType": "string",
          "name": "",
          "type": "string"
        }
      ],
      "payable": false,
      "stateMutability": "view",
      "type": "function"
    },
    {
      "constant": true,
      "inputs": [
        {
          "internalType": "address",
          "name": "_address",
          "type": "address"
        }
      ],
      "name": "getRecycleUnitName",
      "outputs": [
        {
          "internalType": "string",
          "name": "",
          "type": "string"
        }
      ],
      "payable": false,
      "stateMutability": "view",
      "type": "function"
    },
    {
      "constant": false,
      "inputs": [
        {
          "internalType": "uint256",
          "name": "_amount",
          "type": "uint256"
        },
        {
          "internalType": "address",
          "name": "_producer",
          "type": "address"
        }
      ],
      "name": "addPenalizeAmount",
      "outputs": [],
      "payable": false,
      "stateMutability": "nonpayable",
      "type": "function"
    },
    {
      "constant": false,
      "inputs": [
        {
          "internalType": "address",
          "name": "_producer",
          "type": "address"
        }
      ],
      "name": "payPenalizeAmount",
      "outputs": [],
      "payable": true,
      "stateMutability": "payable",
      "type": "function"
    },
    {
      "constant": true,
      "inputs": [
        {
          "internalType": "address",
          "name": "_producer",
          "type": "address"
        }
      ],
      "name": "getPenalizeAmount",
      "outputs": [
        {
          "internalType": "uint256",
          "name": "",
          "type": "uint256"
        }
      ],
      "payable": false,
      "stateMutability": "view",
      "type": "function"
    }
  ],
  "bytecode": "0x608060405234801561001057600080fd5b50336000806101000a81548173ffffffffffffffffffffffffffffffffffffffff021916908373ffffffffffffffffffffffffffffffffffffffff160217905550612537806100606000396000f3fe60806040526004361061014b5760003560e01c806375c6da23116100b65780639b68ade71161006f5780639b68ade714610d5a578063b08a649814610e53578063b5baeaa114610e7e578063b87df62314610ec2578063bc94e4bf14610f2b578063fd03079514610f945761014b565b806375c6da231461092a57806387bbfc3b14610a2a578063897ec7df14610b1c5780638da5cb5b14610c0e57806393ef75ce14610c65578063994cac9014610d2f5761014b565b80634651ed3d116101085780634651ed3d146106545780634af2a8ec1461074657806354a674a714610771578063568fa58c146107cc5780636c7e75b81461089657806372c86a75146108ff5761014b565b806302ba2e691461015057806318e4d67e146101b957806319ba1e26146102b9578063227cca091461038a578063274f97c61461048a578063436701371461058a575b600080fd5b34801561015c57600080fd5b5061019f6004803603602081101561017357600080fd5b81019080803573ffffffffffffffffffffffffffffffffffffffff169060200190929190505050610ff9565b604051808215151515815260200191505060405180910390f35b3480156101c557600080fd5b5061029f600480360360408110156101dc57600080fd5b81019080803573ffffffffffffffffffffffffffffffffffffffff1690602001909291908035906020019064010000000081111561021957600080fd5b82018360208201111561022b57600080fd5b8035906020019184600183028401116401000000008311171561024d57600080fd5b91908080601f016020809104026020016040519081016040528093929190818152602001838380828437600081840152601f19601f8201169050808301925050505050505091929192905050506110e2565b604051808215151515815260200191505060405180910390f35b3480156102c557600080fd5b50610308600480360360208110156102dc57600080fd5b81019080803573ffffffffffffffffffffffffffffffffffffffff1690602001909291905050506111ed565b6040518080602001838152602001828103825284818151815260200191508051906020019080838360005b8381101561034e578082015181840152602081019050610333565b50505050905090810190601f16801561037b5780820380516001836020036101000a031916815260200191505b50935050505060405180910390f35b34801561039657600080fd5b50610470600480360360408110156103ad57600080fd5b81019080803573ffffffffffffffffffffffffffffffffffffffff169060200190929190803590602001906401000000008111156103ea57600080fd5b8201836020820111156103fc57600080fd5b8035906020019184600183028401116401000000008311171561041e57600080fd5b91908080601f016020809104026020016040519081016040528093929190818152602001838380828437600081840152601f19601f82011690508083019250505050505050919291929050505061136d565b604051808215151515815260200191505060405180910390f35b34801561049657600080fd5b50610570600480360360408110156104ad57600080fd5b81019080803573ffffffffffffffffffffffffffffffffffffffff169060200190929190803590602001906401000000008111156104ea57600080fd5b8201836020820111156104fc57600080fd5b8035906020019184600183028401116401000000008311171561051e57600080fd5b91908080601f016020809104026020016040519081016040528093929190818152602001838380828437600081840152601f19601f820116905080830192505050505050509192919290505050611478565b604051808215151515815260200191505060405180910390f35b34801561059657600080fd5b506105d9600480360360208110156105ad57600080fd5b81019080803573ffffffffffffffffffffffffffffffffffffffff169060200190929190505050611594565b6040518080602001828103825283818151815260200191508051906020019080838360005b838110156106195780820151818401526020810190506105fe565b50505050905090810190601f1680156106465780820380516001836020036101000a031916815260200191505b509250505060405180910390f35b34801561066057600080fd5b5061068d6004803603602081101561067757600080fd5b81019080803590602001909291905050506116ee565b604051808473ffffffffffffffffffffffffffffffffffffffff1673ffffffffffffffffffffffffffffffffffffffff1681526020018315151515815260200180602001828103825283818151815260200191508051906020019080838360005b838110156107095780820151818401526020810190506106ee565b50505050905090810190601f1680156107365780820380516001836020036101000a031916815260200191505b5094505050505060405180910390f35b34801561075257600080fd5b5061075b6117ea565b6040518082815260200191505060405180910390f35b34801561077d57600080fd5b506107ca6004803603604081101561079457600080fd5b8101908080359060200190929190803573ffffffffffffffffffffffffffffffffffffffff1690602001909291905050506117f7565b005b3480156107d857600080fd5b5061081b600480360360208110156107ef57600080fd5b81019080803573ffffffffffffffffffffffffffffffffffffffff1690602001909291905050506118b2565b6040518080602001828103825283818151815260200191508051906020019080838360005b8381101561085b578082015181840152602081019050610840565b50505050905090810190601f1680156108885780820380516001836020036101000a031916815260200191505b509250505060405180910390f35b3480156108a257600080fd5b506108e5600480360360208110156108b957600080fd5b81019080803573ffffffffffffffffffffffffffffffffffffffff169060200190929190505050611a0c565b604051808215151515815260200191505060405180910390f35b34801561090b57600080fd5b50610914611af5565b6040518082815260200191505060405180910390f35b34801561093657600080fd5b50610a106004803603604081101561094d57600080fd5b81019080803573ffffffffffffffffffffffffffffffffffffffff1690602001909291908035906020019064010000000081111561098a57600080fd5b82018360208201111561099c57600080fd5b803590602001918460018302840111640100000000831117156109be57600080fd5b91908080601f016020809104026020016040519081016040528093929190818152602001838380828437600081840152601f19601f820116905080830192505050505050509192919290505050611b02565b604051808215151515815260200191505060405180910390f35b348015610a3657600080fd5b50610a6360048036036020811015610a4d57600080fd5b8101908080359060200190929190505050611c0d565b604051808473ffffffffffffffffffffffffffffffffffffffff1673ffffffffffffffffffffffffffffffffffffffff1681526020018315151515815260200180602001828103825283818151815260200191508051906020019080838360005b83811015610adf578082015181840152602081019050610ac4565b50505050905090810190601f168015610b0c5780820380516001836020036101000a031916815260200191505b5094505050505060405180910390f35b348015610b2857600080fd5b50610b5560048036036020811015610b3f57600080fd5b8101908080359060200190929190505050611d09565b604051808473ffffffffffffffffffffffffffffffffffffffff1673ffffffffffffffffffffffffffffffffffffffff1681526020018315151515815260200180602001828103825283818151815260200191508051906020019080838360005b83811015610bd1578082015181840152602081019050610bb6565b50505050905090810190601f168015610bfe5780820380516001836020036101000a031916815260200191505b5094505050505060405180910390f35b348015610c1a57600080fd5b50610c23611e05565b604051808273ffffffffffffffffffffffffffffffffffffffff1673ffffffffffffffffffffffffffffffffffffffff16815260200191505060405180910390f35b348015610c7157600080fd5b50610cb460048036036020811015610c8857600080fd5b81019080803573ffffffffffffffffffffffffffffffffffffffff169060200190929190505050611e2a565b6040518080602001828103825283818151815260200191508051906020019080838360005b83811015610cf4578082015181840152602081019050610cd9565b50505050905090810190601f168015610d215780820380516001836020036101000a031916815260200191505b509250505060405180910390f35b348015610d3b57600080fd5b50610d44611f84565b6040518082815260200191505060405180910390f35b348015610d6657600080fd5b50610d9360048036036020811015610d7d57600080fd5b8101908080359060200190929190505050611f91565b604051808573ffffffffffffffffffffffffffffffffffffffff1673ffffffffffffffffffffffffffffffffffffffff1681526020018415151515815260200180602001838152602001828103825284818151815260200191508051906020019080838360005b83811015610e15578082015181840152602081019050610dfa565b50505050905090810190601f168015610e425780820380516001836020036101000a031916815260200191505b509550505050505060405180910390f35b348015610e5f57600080fd5b50610e68612093565b6040518082815260200191505060405180910390f35b610ec060048036036020811015610e9457600080fd5b81019080803573ffffffffffffffffffffffffffffffffffffffff1690602001909291905050506120a0565b005b348015610ece57600080fd5b50610f1160048036036020811015610ee557600080fd5b81019080803573ffffffffffffffffffffffffffffffffffffffff1690602001909291905050506121c9565b604051808215151515815260200191505060405180910390f35b348015610f3757600080fd5b50610f7a60048036036020811015610f4e57600080fd5b81019080803573ffffffffffffffffffffffffffffffffffffffff1690602001909291905050506122b2565b604051808215151515815260200191505060405180910390f35b348015610fa057600080fd5b50610fe360048036036020811015610fb757600080fd5b81019080803573ffffffffffffffffffffffffffffffffffffffff16906020019092919050505061239b565b6040518082815260200191505060405180910390f35b600080600380549050141561101157600090506110dd565b60008090505b6003805490508110156110d7578273ffffffffffffffffffffffffffffffffffffffff166003828154811061104857fe5b906000526020600020906002020160000160009054906101000a900473ffffffffffffffffffffffffffffffffffffffff1673ffffffffffffffffffffffffffffffffffffffff1614156110ca57600381815481106110a357fe5b906000526020600020906002020160000160149054906101000a900460ff169150506110dd565b8080600101915050611017565b50600090505b919050565b60006110ed83611a0c565b6111e257600460405180606001604052808573ffffffffffffffffffffffffffffffffffffffff168152602001600115158152602001848152509080600181540180825580915050906001820390600052602060002090600202016000909192909190915060008201518160000160006101000a81548173ffffffffffffffffffffffffffffffffffffffff021916908373ffffffffffffffffffffffffffffffffffffffff16021790555060208201518160000160146101000a81548160ff02191690831515021790555060408201518160010190805190602001906111d592919061245d565b50505050600190506111e7565b600090505b92915050565b6060600080600090505b600180549050811015611366578373ffffffffffffffffffffffffffffffffffffffff166001828154811061122857fe5b906000526020600020906003020160000160009054906101000a900473ffffffffffffffffffffffffffffffffffffffff1673ffffffffffffffffffffffffffffffffffffffff161415611359576001818154811061128357fe5b9060005260206000209060030201600101600182815481106112a157fe5b906000526020600020906003020160020154818054600181600116156101000203166002900480601f0160208091040260200160405190810160405280929190818152602001828054600181600116156101000203166002900480156113485780601f1061131d57610100808354040283529160200191611348565b820191906000526020600020905b81548152906001019060200180831161132b57829003601f168201915b505050505091509250925050611368565b80806001019150506111f7565b505b915091565b600061137883610ff9565b61146d57600360405180606001604052808573ffffffffffffffffffffffffffffffffffffffff168152602001600115158152602001848152509080600181540180825580915050906001820390600052602060002090600202016000909192909190915060008201518160000160006101000a81548173ffffffffffffffffffffffffffffffffffffffff021916908373ffffffffffffffffffffffffffffffffffffffff16021790555060208201518160000160146101000a81548160ff021916908315150217905550604082015181600101908051906020019061146092919061245d565b5050505060019050611472565b600090505b92915050565b6000611483836122b2565b61158957600160405180608001604052808573ffffffffffffffffffffffffffffffffffffffff16815260200160011515815260200184815260200160008152509080600181540180825580915050906001820390600052602060002090600302016000909192909190915060008201518160000160006101000a81548173ffffffffffffffffffffffffffffffffffffffff021916908373ffffffffffffffffffffffffffffffffffffffff16021790555060208201518160000160146101000a81548160ff021916908315150217905550604082015181600101908051906020019061157292919061245d565b50606082015181600201555050506001905061158e565b600090505b92915050565b606060008090505b6004805490508110156116e7578273ffffffffffffffffffffffffffffffffffffffff16600482815481106115cd57fe5b906000526020600020906002020160000160009054906101000a900473ffffffffffffffffffffffffffffffffffffffff1673ffffffffffffffffffffffffffffffffffffffff1614156116da576004818154811061162857fe5b90600052602060002090600202016001018054600181600116156101000203166002900480601f0160208091040260200160405190810160405280929190818152602001828054600181600116156101000203166002900480156116cd5780601f106116a2576101008083540402835291602001916116cd565b820191906000526020600020905b8154815290600101906020018083116116b057829003601f168201915b50505050509150506116e9565b808060010191505061159c565b505b919050565b600381815481106116fb57fe5b90600052602060002090600202016000915090508060000160009054906101000a900473ffffffffffffffffffffffffffffffffffffffff16908060000160149054906101000a900460ff1690806001018054600181600116156101000203166002900480601f0160208091040260200160405190810160405280929190818152602001828054600181600116156101000203166002900480156117e05780601f106117b5576101008083540402835291602001916117e0565b820191906000526020600020905b8154815290600101906020018083116117c357829003601f168201915b5050505050905083565b6000600380549050905090565b60008090505b6001805490508110156118ad578173ffffffffffffffffffffffffffffffffffffffff166001828154811061182e57fe5b906000526020600020906003020160000160009054906101000a900473ffffffffffffffffffffffffffffffffffffffff1673ffffffffffffffffffffffffffffffffffffffff1614156118a057826001828154811061188a57fe5b9060005260206000209060030201600201819055505b80806001019150506117fd565b505050565b606060008090505b600280549050811015611a05578273ffffffffffffffffffffffffffffffffffffffff16600282815481106118eb57fe5b906000526020600020906002020160000160009054906101000a900473ffffffffffffffffffffffffffffffffffffffff1673ffffffffffffffffffffffffffffffffffffffff1614156119f8576002818154811061194657fe5b90600052602060002090600202016001018054600181600116156101000203166002900480601f0160208091040260200160405190810160405280929190818152602001828054600181600116156101000203166002900480156119eb5780601f106119c0576101008083540402835291602001916119eb565b820191906000526020600020905b8154815290600101906020018083116119ce57829003601f168201915b5050505050915050611a07565b80806001019150506118ba565b505b919050565b6000806004805490501415611a245760009050611af0565b60008090505b600480549050811015611aea578273ffffffffffffffffffffffffffffffffffffffff1660048281548110611a5b57fe5b906000526020600020906002020160000160009054906101000a900473ffffffffffffffffffffffffffffffffffffffff1673ffffffffffffffffffffffffffffffffffffffff161415611add5760048181548110611ab657fe5b906000526020600020906002020160000160149054906101000a900460ff16915050611af0565b8080600101915050611a2a565b50600090505b919050565b6000600480549050905090565b6000611b0d836121c9565b611c0257600260405180606001604052808573ffffffffffffffffffffffffffffffffffffffff168152602001600115158152602001848152509080600181540180825580915050906001820390600052602060002090600202016000909192909190915060008201518160000160006101000a81548173ffffffffffffffffffffffffffffffffffffffff021916908373ffffffffffffffffffffffffffffffffffffffff16021790555060208201518160000160146101000a81548160ff0219169083151502179055506040820151816001019080519060200190611bf592919061245d565b5050505060019050611c07565b600090505b92915050565b60048181548110611c1a57fe5b90600052602060002090600202016000915090508060000160009054906101000a900473ffffffffffffffffffffffffffffffffffffffff16908060000160149054906101000a900460ff1690806001018054600181600116156101000203166002900480601f016020809104026020016040519081016040528092919081815260200182805460018160011615610100020316600290048015611cff5780601f10611cd457610100808354040283529160200191611cff565b820191906000526020600020905b815481529060010190602001808311611ce257829003601f168201915b5050505050905083565b60028181548110611d1657fe5b90600052602060002090600202016000915090508060000160009054906101000a900473ffffffffffffffffffffffffffffffffffffffff16908060000160149054906101000a900460ff1690806001018054600181600116156101000203166002900480601f016020809104026020016040519081016040528092919081815260200182805460018160011615610100020316600290048015611dfb5780601f10611dd057610100808354040283529160200191611dfb565b820191906000526020600020905b815481529060010190602001808311611dde57829003601f168201915b5050505050905083565b6000809054906101000a900473ffffffffffffffffffffffffffffffffffffffff1681565b606060008090505b600380549050811015611f7d578273ffffffffffffffffffffffffffffffffffffffff1660038281548110611e6357fe5b906000526020600020906002020160000160009054906101000a900473ffffffffffffffffffffffffffffffffffffffff1673ffffffffffffffffffffffffffffffffffffffff161415611f705760038181548110611ebe57fe5b90600052602060002090600202016001018054600181600116156101000203166002900480601f016020809104026020016040519081016040528092919081815260200182805460018160011615610100020316600290048015611f635780601f10611f3857610100808354040283529160200191611f63565b820191906000526020600020905b815481529060010190602001808311611f4657829003601f168201915b5050505050915050611f7f565b8080600101915050611e32565b505b919050565b6000600280549050905090565b60018181548110611f9e57fe5b90600052602060002090600302016000915090508060000160009054906101000a900473ffffffffffffffffffffffffffffffffffffffff16908060000160149054906101000a900460ff1690806001018054600181600116156101000203166002900480601f0160208091040260200160405190810160405280929190818152602001828054600181600116156101000203166002900480156120835780601f1061205857610100808354040283529160200191612083565b820191906000526020600020905b81548152906001019060200180831161206657829003601f168201915b5050505050908060020154905084565b6000600180549050905090565b60008090505b600180549050811015612157578173ffffffffffffffffffffffffffffffffffffffff16600182815481106120d757fe5b906000526020600020906003020160000160009054906101000a900473ffffffffffffffffffffffffffffffffffffffff1673ffffffffffffffffffffffffffffffffffffffff16141561214a5760006001828154811061213457fe5b9060005260206000209060030201600201819055505b80806001019150506120a6565b5060008060009054906101000a900473ffffffffffffffffffffffffffffffffffffffff1690508073ffffffffffffffffffffffffffffffffffffffff166108fc349081150290604051600060405180830381858888f193505050501580156121c4573d6000803e3d6000fd5b505050565b60008060028054905014156121e157600090506122ad565b60008090505b6002805490508110156122a7578273ffffffffffffffffffffffffffffffffffffffff166002828154811061221857fe5b906000526020600020906002020160000160009054906101000a900473ffffffffffffffffffffffffffffffffffffffff1673ffffffffffffffffffffffffffffffffffffffff16141561229a576002818154811061227357fe5b906000526020600020906002020160000160149054906101000a900460ff169150506122ad565b80806001019150506121e7565b50600090505b919050565b60008060018054905014156122ca5760009050612396565b60008090505b600180549050811015612390578273ffffffffffffffffffffffffffffffffffffffff166001828154811061230157fe5b906000526020600020906003020160000160009054906101000a900473ffffffffffffffffffffffffffffffffffffffff1673ffffffffffffffffffffffffffffffffffffffff161415612383576001818154811061235c57fe5b906000526020600020906003020160000160149054906101000a900460ff16915050612396565b80806001019150506122d0565b50600090505b919050565b600080600090505b600180549050811015612456578273ffffffffffffffffffffffffffffffffffffffff16600182815481106123d457fe5b906000526020600020906003020160000160009054906101000a900473ffffffffffffffffffffffffffffffffffffffff1673ffffffffffffffffffffffffffffffffffffffff161415612449576001818154811061242f57fe5b906000526020600020906003020160020154915050612458565b80806001019150506123a3565b505b919050565b828054600181600116156101000203166002900490600052602060002090601f016020900481019282601f1061249e57805160ff19168380011785556124cc565b828001600101855582156124cc579182015b828111156124cb5782518255916020019190600101906124b0565b5b5090506124d991906124dd565b5090565b6124ff91905b808211156124fb5760008160009055506001016124e3565b5090565b9056fea265627a7a72315820f6d7fe10514aec6e3ba8ce45983cb00a76c5128cbae265988b02832b873fcfb864736f6c63430005100032",
  "source": "pragma solidity >=0.4.21 <0.7.0;\n\ncontract AdminContract{\n    address public owner;\n\n    producer[] public producers;\n    User[] public retailers;\n    User[] public consumers;\n    User[] public recycleUnits;\n\n    modifier onlyOwner(){\n        require(msg.sender == owner);\n        _;\n    }\n\n    struct producer{\n        address addr;\n        bool ispresent;\n        string name;\n        uint penalize;\n    }\n\n    struct User{\n        address addr;\n        bool ispresent;\n        string name;\n    }\n\n    constructor() public{\n        owner = msg.sender;\n    }\n\n    function addProducer(address _pAddress,string memory _name) public returns(bool){\n        if(!checkProducer(_pAddress)){\n            producers.push(producer(_pAddress, true, _name,0));\n            return true;\n        }else{\n            return false;\n        }\n    }\n\n    function addRetailer(address _rAddress,string memory _name) public returns(bool){\n        if(!checkRetailer(_rAddress)){\n            retailers.push(User(_rAddress, true, _name));\n            return true;\n        }else{\n            return false;\n        }\n    }\n\n    function addConsumer(address _cAddress,string memory _name) public returns(bool){\n        if(!checkConsumer(_cAddress)){\n            consumers.push(User(_cAddress, true, _name));\n            return true;\n        }else{\n            return false;\n        }\n    }\n\n    function addRecycleUnit(address _rAddress,string memory _name) public returns(bool){\n        if(!checkRecycleUnit(_rAddress)){\n            recycleUnits.push(User(_rAddress, true, _name));\n            return true;\n        }else{\n            return false;\n        }\n    }\n\n    //validate users\n    function checkProducer(address _address) public view returns(bool) {\n        if(producers.length == 0){\n            return false;\n        }else{\n            for (uint i=0; i<producers.length; i++){\n                if(producers[i].addr == _address){\n                    return producers[i].ispresent;\n                }\n            }\n            return false;\n        }\n    }\n\n    function checkRetailer(address _address) public view returns(bool) {\n        if(retailers.length == 0){\n            return false;\n        }else{\n            for (uint i=0; i<retailers.length; i++){\n                if(retailers[i].addr == _address){\n                    return retailers[i].ispresent;\n                }\n            }\n            return false;\n        }\n    }\n\n    function checkConsumer(address _address) public view returns(bool) {\n        if(consumers.length == 0){\n            return false;\n        }else{\n            for (uint i=0; i<consumers.length; i++){\n                if(consumers[i].addr == _address){\n                    return consumers[i].ispresent;\n                }\n            }\n            return false;\n        }\n    }\n\n    function checkRecycleUnit(address _address) public view returns(bool) {\n        if(recycleUnits.length == 0){\n            return false;\n        }else{\n            for (uint i=0; i<recycleUnits.length; i++){\n                if(recycleUnits[i].addr == _address){\n                    return recycleUnits[i].ispresent;\n                }\n            }\n            return false;\n        }\n    }\n\n    //returning length\n    function getProducerCount() public view returns(uint){\n        return producers.length;\n    }\n\n    function getRetailerCount() public view returns(uint){\n        return retailers.length;\n    }\n\n    function getConsumerCount() public view returns(uint){\n        return consumers.length;\n    }\n\n    function getRecyclingUintCount() public view returns(uint){\n        return recycleUnits.length;\n    }\n\n    //return names\n    function getProducerName(address _address) public view returns(string memory,uint){\n        for(uint i=0; i<producers.length; i++){\n            if(producers[i].addr == _address){\n                return (producers[i].name,producers[i].penalize);\n            }\n        }\n    }\n\n    function getRetailerName(address _address) public view returns(string memory){\n        for(uint i=0; i<retailers.length; i++){\n            if(retailers[i].addr == _address){\n                return retailers[i].name;\n            }\n        }\n    }\n\n    function getConsumerName(address _address) public view returns(string memory){\n        for(uint i=0; i<consumers.length; i++){\n            if(consumers[i].addr == _address){\n                return consumers[i].name;\n            }\n        }\n    }\n\n    function getRecycleUnitName(address _address) public view returns(string memory){\n        for(uint i=0; i<recycleUnits.length; i++){\n            if(recycleUnits[i].addr == _address){\n                return recycleUnits[i].name;\n            }\n        }\n    }\n\n    function addPenalizeAmount(uint _amount,address _producer) public {\n        for(uint i=0; i<producers.length; i++){\n            if(producers[i].addr == _producer){\n                producers[i].penalize=_amount;\n            }\n        }\n    }\n\n    function payPenalizeAmount(address _producer) public payable {\n        for(uint i=0; i<producers.length; i++){\n            if(producers[i].addr == _producer){\n                producers[i].penalize=0;\n            }\n        }\n        address payable _admin=address(uint160(owner));\n        _admin.transfer(msg.value);\n    }\n\n    function getPenalizeAmount(address _producer)public view returns(uint){\n        for(uint i=0; i<producers.length; i++){\n            if(producers[i].addr == _producer){\n                return producers[i].penalize;\n            }\n        }\n    }\n\n\n}\n",
  "sourcePath": "/Users/aviral/Documents/JIIT/6th Semester/Minor Project II/e-waste-management-using-blockchain-master/contracts/AdminContract.sol",
  "compiler": {
    "name": "solc",
    "version": "0.5.16+commit.9c3226ce.Emscripten.clang"
  },
  "schemaVersion": "3.4.16",
  "updatedAt": "2024-05-06T15:59:56.150Z",
  "networkType": "ethereum",
  "devdoc": {
    "methods": {}
  },
  "userdoc": {
    "methods": {}
  }
}